S01F000056616C766F6C61203320566965204C61766174726963652E73726563DE
S1130000000C0020D91200002F140000311400004D
S113001000000000000000000000000000000000DC
S11300200000000000000000000000003314000085
S1130030000000000000000035140000E30400008C
S11300401514000015140000151400001514000008
S113005015140000151400001514000015140000F8
S1130060DD13000015140000E5130000ED1300007B
S1130070F5130000FD130000051400001514000022
S113008015140000151400001514000015140000C8
S11300900D140000151400001514000015140000C0
S11300A0151400009B050000151400001514000031
S11300B01514000015140000151400001514000098
S11300C018190100012015490860704714490A787D
S11300D0FC23134003430B707047124908607047B8
S11300E080B500F001F801BD10B5FFF7EBFF0E4C31
S11300F0200000F094FF2068FFF7EFFF0B4CA1787D
S1130100E07800F0E9FF6078FFF7E0FF084800F0CE
S113011077FF08480849086010BD000018800440B3
S11301200040064004FDFF1FB41300001C1400002F
S10F0130AC130000005A620200FDFF1F27
S1130400FFFFFFFFFFFFFFFFFFFFFFFFFFFFFEFFF9
S1130410F0B5020052B2002A17D418226F4B040020
S113042064B2A408A4001C59FF25C6001640B540B8
S1130430AC438D01EDB2C600324095402543020025
S113044052B2920892009D501BE00F22A84B182430
S113045005006DB21540083DAD08AE0005006DB253
S11304602A40083A920892009A58FF25C70027406C
S1130470BD40AA438D01EDB2C7003C40A5401543E1
S11304809D51F0BD10B50400601E802149048842CE
S113049001D301200EE0601E96490860032100206C
S11304A0C043FFF7B5FF0020934908600720934934
S11304B00860002010BD0268D200D2080B00DBB235
S11304C05B0713430360704700780100C9B2C90891
S11304D00800C007C00F7047017804220A43027065
S11304E0704787480168491C0160704710B584480B
S11304F00168491C016083480168002902D0016831
S1130500491E016080480168491C0160C82918D14E
S11305107E480178002904D10221072000F0AEF9B9
S11305202AE00178012904D18021042000F0A6F9F1
S113053022E0007802281FD10421072000F09EF950
S11305401AE00168C8225200914215D100240460C7
S11305500221072000F06EF98021042000F06AF9DE
S11305600421072000F066F968480178491C0170ED
S1130570C9B2032900DB047000F0CFF900F0F3F9ED
S1130580012802D101206249087000F0ECF9012829
S113059002D101205F49087010BD10B55E480168A2
S11305A0491C01605D4C2000FFF78EFF002805D038
S11305B02000FFF791FF01205949087010BD000089
S11305C080B500200090009000985649884204D2DB
S11305D000BF0098401C0090F6E701BD00E400E075
S11305E0FEB500F07AFAFFF77BFD05214E48FFF7D0
S11305F062FF0025280069460872042000900195D6
S1130600464C6946200000F069FB2000FFF764FFB8
S113061003211920FFF7FCFE0024E4434349200092
S113062000F0A5FB002800D1FEE74149200000F0BE
S11306309EFB002800D1FEE7FA26B6003D4F38683D
S1130640310000F0C5FBFFF71DFF002800D0FEE7D6
S113065002212000FFF7DCFE00F040F9294C26605F
S11306600221052000F0E6F80821052000F0E2F858
S11306700821062000F0DEF80221042000F0DAF858
S11306800121042000F0D6F820680028FCD10821BC
S1130690052000F0E1F80821062000F0DDF8012132
S11306A0042000F0D9F8FFF78BFF15480068704369
S11306B000213A68002300F0E3FB1F4A002300F006
S11306C0F8FB1E49086012480178002905D029006A
S11306D001701B480168491C01600E48017800291B
S11306E0E1D02900017017480168491C0160DAE76C
S11306F01CED00E014E000E018E000E010E000E091
S113070010FDFF1F18FDFF1F14FDFF1F2DFDFF1F10
S11307102EFDFF1F2FFDFF1F20FDFF1F00A0074020
S11307202CFDFF1F00350C0000900440E304000082
S1130730ED04000000FDFF1F40420F001CFDFF1FE1
S113074024FDFF1F28FDFF1FF8B507000C0016004D
S1130750002E06D151225E495E4800F0E9FB00BF3D
S113076000BF3800C0B2800869464870B807800FDF
S11307706946087058486946497889004558307870
S1130780002816D1012269692000C0B26B461B788B
S1130790DB00C3181000984081436961A8692100F7
S11307A0C9B26B461B78DB00C9188A409043A86124
S11307B01CE072782100C9B23800C0B200F017F80A
S11307C0012168692200D2B26B461B78DB00D31882
S11307D00A009A4002436A61A8692200D2B26B46B9
S11307E01B78DB00D21891400143A961F1BDF4B537
S11307F00200D2B2920883079B0F374C1500EDB26A
S1130800AD0064596D462D78002D09D101260D00E7
S1130810EDB21F00FFB2FF00ED19AE40A66008E084
S113082001260D00EDB21F00FFB2FF00ED19AE402E
S11308306660F1BD70B40200D2B2920883079B0FC8
S1130840254C1500EDB2AD0064590D00EDB2DE008B
S1130850B540656070BC704770B40200D2B29208B3
S113086083079B0F1C4C1500EDB2AD0064590D00BD
S1130870EDB2DE00B540A56070BC704770B40200F4
S1130880D2B2920883079B0F134C1500EDB2AD0052
S113089064590D00EDB2DE00B540E56070BC7047F0
S11308A030B402001000C0B283089007800F0A4CD5
S11308B01D00EDB2AD0064592469C9B2C0B2C000D4
S11308C00818C4402000C007C00F30BC70470000A7
S11308D010120000BC130000C413000010B5032163
S11308E00420FFF7DDFF002801D0012200E00022F0
S11308F0394CD2B23221200000F03AF8022104200F
S1130900FFF7CEFF002801D0012200E00022D2B27E
S11309101421201D00F02CF810BD38B5032104204B
S1130920FFF7BEFF002801D0012000E000202A4C80
S1130930FD25A178294040000843A070200000F064
S11309404FF802210420FFF7ABFF002801D001215A
S113095000E00021201D8278154049002943817060
S113096000F03EF831BD1C488078C0B240097047A1
S113097010B50368FF24A3430C00E4B21C430460D5
S11309800368164C1C400B00DBB21B0223430360BC
S11309908378FE241C40144384708378FD241C4017
S11309A053002343837003688024E4021C430460DF
S11309B01300DBB2002B06D08378E7241C40082305
S11309C02343837003E08378E7241C408470837896
S11309D0DB06DB0E837010BD08FDFF1FFF00FFFF69
S11309E000B58178C9B249080A00D207D20F8178CC
S11309F00B00DB07DB0F9A4211D10168FF22914300
S1130A000268120AD2B20A43026001688022D2024A
S1130A100A4302608178C906C90E81703EE00178FC
S1130A20C9B2002932D18178FE220A408178C9B244
S1130A3049080B00DB07DB0F134383700168FF22B7
S1130A4091430268120AD2B20A430260016880220A
S1130A50D2020A4302608178C9070CD58178E72263
S1130A600A400821114381708178C906C90E2022E9
S1130A700A43827012E08178E7220A40827081780A
S1130A80C906C90E40220A43827007E00168FF22AA
S1130A9091430268521ED2B20A43026000BD0000B4
S1130AA010B4036803248C40A3431400E4B28C40C4
S1130AB01C43046010BC704710B51300DBB2002B5C
S1130AC005D0C3680C00E4B21C43C46004E0C368EE
S1130AD00C00E4B2A343C36010BD80B500F003F87A
S1130AE000F0BCF801BD10B586B04D4800886946D9
S1130AF0C88205AA921C00210220FFF725FE49485E
S1130B0000886946888205AA00210420FFF71CFE9C
S1130B10454800886946488204AA921C01210420A1
S1130B20FFF712FE414800886946088204AA0221A0
S1130B300420FFF709FE3E4800886946C88103AADD
S1130B40921C03210420FFF7FFFD3A480088694600
S1130B50888103AA07210420FFF7F6FD36480088A0
S1130B606946488102AA921C00210520FFF7ECFD8A
S1130B70324800886946088102AA01210520FFF74E
S1130B80E3FD2F4800886946C88001AA921C07210A
S1130B900520FFF7D9FD2B4800886946888001AA03
S1130BA003210620FFF7D0FD2748008869464880C6
S1130BB000AA921C01210720FFF7C6FD23480088E4
S1130BC0694608806A4602210720FFF7BDFD204CD4
S1130BD0002220212000FFF76FFF00228021200047
S1130BE0FFF76AFF032214212000FFF759FF0123B6
S1130BF002220421200000F0ADF901230322042184
S1130C00200000F0A7F9012302220321200000F0B4
S1130C10A1F910480168104A0A40026006B010BDEC
S1130C20C20000007E0E00002E0F0000D20F000054
S1130C30FA10000076130000821300002414000050
S1130C4026140000281400002A1400002C140000AC
S1130C500090044004800440FFFFF7FF7047000049
S1130C6000B5010049B2002905D40121C206D20E03
S1130C709140334A116000BD010C324A89180A6858
S1130C800123834013430B60704738B504000025EB
S1130C9020007F21C94340B2884202D101200500CF
S1130CA003E0200040B2FFF7DBFF280032BD38B577
S1130CB005000024022C06D22348A1004058A84273
S1130CC001D0641CF6E7022C06D335221F492048C4
S1130CD000F02EF900BF00BF200032BDF8B50400BB
S1130CE00F00002F06D1442218491A4800F020F9B9
S1130CF000BF00BF2000FFF7DAFF05002000FFF768
S1130D00D6FF154980000858FFF7B6FF0020207071
S1130D107868A070386860700426300020702078ED
S1130D200090387A0100C907C90F009808430221CE
S1130D300143217009484057FFF7A7FFF1BD0000A8
S1130D4000E100E000800440D413000048120000D9
S1130D5060110000A0130000CC130000C0000000CC
S1130D60EFF3108072B6704780F310887047F2B5C5
S1130D700400FFF7F5FF0500114812490A68824292
S1130D800DD000221600104A9208964206D20F4A4D
S1130D90B300D258B300C250761CF4E708602100B7
S1130DA049B2890041180F6C0099220052B2920096
S1130DB0801801642800FFF7D7FF3800F2BD000057
S1130DC000FCFF1F08ED00E0BD0000000000000073
S1130DD00022030A8B420BD203098B4219D2430827
S1130DE08B422ED2411A00D201465241104670471E
S1130DF0FF2209023FD012068B4205D312120902C8
S1130E008B4201D31212090203098B4219D300E069
S1130E10090AC3098B4201D3CB01C01A5241830989
S1130E208B4201D38B01C01A524143098B4201D337
S1130E304B01C01A524103098B4201D30B01C01A62
S1130E405241C3088B4201D3CB00C01A52418308DC
S1130E508B4201D38B00C01A524143088B4201D309
S1130E604B00C01A5241884200D3401A5241CFD29B
S1130E7001461046704708B500F03EF908BD010070
S1130E8030B4434351435D18010C0C00130C5C4314
S1130E902D1980B2434392B251430024C9186441CE
S1130EA024040B04090C09195043C018694130BCCF
S1130EB0704712422DD0994231D970B500251B429A
S1130EC009D00C00002112E01100FFF781FF0A0095
S1130ED00021002370BD0942F6D0002401264918E0
S1130EE06441944200D3A41A7641F8D33100012618
S1130EF001E0764109D2001864416D41A41A9D4174
S1130F00F7D2A4185D41B619F5D3300022002B00A6
S1130F1070BD1B42CFD108B500F0F0F808BD01D177
S1130F209042CAD202000B00002100207047010049
S1130F3000B583B00091019202906A4604491820DA
S1130F40ABBE002801D100F0DAF803B000BD00BF49
S1130F5010100200F0B51C00E4B2002C1CD00C00F0
S1130F60E4B2042C0BDA446801250E00F6B2F60054
S1130F701700FFB2F619B5402543456028E08468A0
S1130F8001250E00F6B2361FF6001700FFB2F6195F
S1130F90B540254385601BE00C00E4B2042C0BDA59
S1130FA0446801250E00F6B2F6001700FFB2F619E8
S1130FB0B540AC4344600BE0846801250E00F6B2F2
S1130FC0361FF6001700FFB2F619B540AC43846033
S1130FD0F0BD000038B50500204CA54209D32048D7
S1130FE0854206D2AD221C491E48FFF7A1FF00BF6F
S1130FF000BF00200100A54200D30120C0B232BDD1
S113100010B40168314A116031490A6803791B043C
S1131010E024E4021C4014430C6010BC704738B553
S113102004002068FFF7D6FF0F490A7849231340CC
S1131030820004252A401A432379134362791A4310
S11310400A702279002A05D00A78120602D50A7895
S1131050D207FCD531BD0000D811000098980000DB
S113106000093D00B01200000050064070B50200B7
S113107003201E4B1C7805002540CC003826264052
S11310802E431E70134B1C78E406E40E55012543D1
S11310901D70184B1C78E40602D51C78E407FCD5B7
S11310A0134B1C782500ED06ED0F002DF8D11C78AC
S11310B0A4080440002CFAD118784006FCD518780E
S11310C0802404431C70002070BD0000188004407C
S11310D0048004400140064038B505000C0021009E
S11310E0C9B22800C0B2FFF7C1FF32BD00400640BC
S11310F0044006400050064070470000704780B529
S1131100012000F001F801BD80B500BF00BF024A14
S113111011001820ABBEFBE72600020009480A496B
S113112001800A4901800A480A4908800A4801786E
S11311304906490E20220A430270084801780170CA
S11311407047000002200540C5200000D928000097
S1131150FFFF000004200540002005400120054059
S1131160696E7374616E6365203C202873697A65C7
S11311706F6628735F6B6269426173657329202F00
S11311802073697A656F662828735F6B62694261B0
S1131190736573295B305D292900000070B4012355
S11311A0002413E00168001D194202D04D4669185D
S11311B0491E0C60091D121F042AFAD20D0096075D
S11311C001D50C80AD1C1A4000D02C700268001DA3
S11311D0002AE7D170BC7047433A5C446174615C97
S11311E0536F75726365735C332D5669652D4C615D
S11311F0766174726963652E6769745C647269767A
S11312006572735C66736C5F636C6F636B2E6300F3
S1131210433A5C446174615C536F75726365735CDB
S1131220332D5669652D4C61766174726963652E40
S11312306769745C647269766572735C66736C5F0B
S11312406770696F2E630000433A5C446174615CAB
S1131250536F75726365735C332D5669652D4C61EC
S1131260766174726963652E6769745C6472697609
S11312706572735C66736C5F6B62692E6300000059
S113128030B401220EE00368C318446808301442E5
S113129002D04D462C19641E1D6825601B1D241D9B
S11312A0091FF9D10168001D0029ECD130BC704739
S11312B02866726571203C3D203339303633552918
S11312C0207C7C202866726571203E3D20343030BD
S11312D0303030305529000072B6054805490160A8
S11312E00A6882F308880448804762B603480047C6
S11312F008ED00E0000000001D110000851300004F
S113130010B5074979441831064C7C44163404E07E
S1131310081D0A68891888470100A142F8D110BD48
S1131320080000002800000075FEFFFF2C000000EC
S113133004FDFF1F0000000049FFFFFF0400000040
S1131340E000000000FDFF1F0000000000F00DF8A9
S1131350002801D0FFF7D4FF00BF00BF002000BF6A
S113136000BFFFF73DF900F002F80120704780B597
S113137000F002F801BD010107463846FFF7C4FE3C
S1131380FBE701000548014603B4684680F3098879
S113139000BF00BF00BF00BFFFF7D8FFA5EDF5FEFB
S11313A0636F6E6669677572650000000100000076
S11313B0000000008096980010800000636F6E6645
S11313C06967000000F00F4040F00F4018000C0067
S11313D019000C000090074000A007400048004797
S11313E01514000000480047151400000048004789
S11313F01514000000480047151400000048004779
S11314001514000000480047151400000048004768
S113141015140000004800471514000003020300DF
S11314200048E80101000100010001010101FEE79B
S1091430FEE7FEE7FEE703
S90312D911
