S01F000056616C766F6C61203320566965204C61766174726963652E73726563DE
S1130000000C00204D120000EB120000F71200005B
S113001000000000000000000000000000000000DC
S11300200000000000000000000000009913000020
S113003000000000000000009B130000E304000027
S1130040891300008913000089130000891300003C
S1130050891300008913000089130000891300002C
S113006051130000891300005913000061130000AC
S11300706913000071130000791300008913000054
S113008089130000891300008913000089130000FC
S113009081130000891300008913000089130000F4
S11300A0891300008D0500008913000089130000E6
S11300B089130000891300008913000089130000CC
S11300C018190000012015490860704714490A787E
S11300D0FC23134003430B707047124908607047B8
S11300E080B500F001F801BD10B5FFF7EBFF0E4C31
S11300F0200000F0FCFE2068FFF7EFFF0B4CA17816
S1130100E07800F051FF6078FFF7E0FF084800F066
S1130110DFFE08480849086010BD0000188004404C
S11301200040064004FDFF1F281300009013000048
S10F013020130000005A620200FDFF1FB3
S1130400FFFFFFFFFFFFFFFFFFFFFFFFFFFFFEFFF9
S1130410F0B5020052B2002A17D418229D4B0400F2
S113042064B2A408A4001C59FF25C6001640B540B8
S1130430AC438D01EDB2C600324095402543020025
S113044052B2920892009D501BE00F22924B182446
S113045005006DB21540083DAD08AE0005006DB253
S11304602A40083A920892009A58FF25C70027406C
S1130470BD40AA438D01EDB2C7003C40A5401543E1
S11304809D51F0BD10B50400601E802149048842CE
S113049001D301200EE0601E804908600321002082
S11304A0C043FFF7B5FF00207D49086007207D4960
S11304B00860002010BD0268D200D2080B00DBB235
S11304C05B0713430360704700780100C9B2C90891
S11304D00800C007C00F7047017804220A43027065
S11304E0704771480168491C0160704710B56E4837
S11304F00168491C01606D480168491C0160C829F4
S113050018D16B480178002904D10221072000F09A
S113051075F92AE00178012904D18021042000F032
S11305206DF922E0007802281FD10421072000F091
S113053065F91AE00168C8225200914215D10024DD
S113054004600221072000F047F98021042000F014
S113055043F90421072000F03FF955480178491C6C
S11305600170C9B2032900DB047000F096F900F0B1
S1130570BAF9012802D101204E49087000F0B3F9FC
S1130580012802D101204C49087010BD10B54B4818
S11305900168491C01604A4C2000FFF795FF0028C0
S11305A005D02000FFF798FF01204649087010BDD0
S11305B080B500200090009000984349884204D2FE
S11305C000BF0098401C0090F6E701BDFEB500F0A6
S11305D044FAFFF785FD05213C48FFF76CFF002531
S11305E0280069460872042000900195344C69463D
S11305F0200000F0DBFA2000FFF76EFF0321192032
S1130600FFF706FF0024E4433149200000F017FB04
S1130610002800D1FEE72F49200000F010FB00283D
S113062000D1FEE7FA27BF002B4E3068390000F0F6
S113063037FBFFF727FF002800D0FEE70221200048
S1130640FFF7E6FE00F00AF9FFF7B2FF164800686C
S1130650784300213268002300F07AFB1F4A00230C
S113066000F08FFB1E49086012480178002905D06C
S1130670290001701B480168491C01600E4801787B
S11306800029E1D02900017017480168491C016064
S1130690DAE7000000E400E01CED00E014E000E014
S11306A018E000E010E000E010FDFF1F14FDFF1F44
S11306B029FDFF1F2AFDFF1F2BFDFF1F1CFDFF1F30
S11306C000A0074028FDFF1F00350C0000900440E7
S11306D0E3040000ED04000000FDFF1F40420F0092
S11306E018FDFF1F20FDFF1F24FDFF1FF8B50700A5
S11306F00C001600002E06D151225549554800F031
S11307007FFB00BF00BF3800C0B280086946487054
S1130710B807800F694608704F48694649788900D0
S113072045583078002816D1012269692000C0B2EA
S11307306B461B78DB00C318100098408143696145
S1130740A8692100C9B26B461B78DB00C9188A402E
S11307509043A8611CE072782100C9B23800C0B28D
S113076000F017F8012168692200D2B26B461B78A9
S1130770DB00D3180A009A4002436A61A869220088
S1130780D2B26B461B78DB00D21891400143A961B9
S1130790F1BDF4B50200D2B2920883079B0F2E4C30
S11307A01500EDB2AD0064596D462D78002D09D1C8
S11307B001260D00EDB21F00FFB2FF00ED19AE409F
S11307C0A66008E001260D00EDB21F00FFB2FF0095
S11307D0ED19AE406660F1BD70B40200D2B2920869
S11307E083079B0F1C4C1500EDB2AD0064590D003E
S11307F0EDB2DE00B540656070BC704770B40200B5
S1130800D2B2920883079B0F134C1500EDB2AD00D2
S113081064590D00EDB2DE00B540E56070BC704770
S113082030B402001000C0B283089007800F0A4C55
S11308301D00EDB2AD0064592469C9B2C0B2C00054
S11308400818C4402000C007C00F30BC7047000027
S113085084110000301300003813000010B5032188
S11308600420FFF7DDFF002801D0012200E0002270
S1130870394CD2B23221200000F03AF8022104208F
S1130880FFF7CEFF002801D0012200E00022D2B2FF
S11308901421201D00F02CF810BD38B503210420CC
S11308A0FFF7BEFF002801D0012000E000202A4C01
S11308B0FD25A178294040000843A070200000F0E5
S11308C04FF802210420FFF7ABFF002801D00121DB
S11308D000E00021201D82781540490029438170E1
S11308E000F03EF831BD1C488078C0B24009704722
S11308F010B50368FF24A3430C00E4B21C43046056
S11309000368164C1C400B00DBB21B02234303603C
S11309108378FE241C40144384708378FD241C4097
S113092053002343837003688024E4021C4304605F
S11309301300DBB2002B06D08378E7241C40082385
S11309402343837003E08378E7241C408470837816
S1130950DB06DB0E837010BD08FDFF1FFF00FFFFE9
S113096000B58178C9B249080A00D207D20F81784C
S11309700B00DB07DB0F9A4211D10168FF22914380
S11309800268120AD2B20A43026001688022D202CB
S11309900A4302608178C906C90E81703EE001787D
S11309A0C9B2002932D18178FE220A408178C9B2C5
S11309B049080B00DB07DB0F134383700168FF2238
S11309C091430268120AD2B20A430260016880228B
S11309D0D2020A4302608178C9070CD58178E722E4
S11309E00A400821114381708178C906C90E20226A
S11309F00A43827012E08178E7220A40827081788B
S1130A00C906C90E40220A43827007E00168FF222A
S1130A1091430268521ED2B20A43026000BD000034
S1130A2010B4036803248C40A3431400E4B28C4044
S1130A301C43046010BC704710B51300DBB2002BDC
S1130A4005D0C3680C00E4B21C43C46004E0C3686E
S1130A500C00E4B2A343C36010BD80B500F003F8FA
S1130A6000F064F801BD1FB5284800886946088174
S1130A7002AA02210420FFF739FE254800886946AE
S1130A80C88001AA921C03210420FFF72FFE2148ED
S1130A9000886946888001AA07210420FFF726FE02
S1130AA01D4800886946488000AA921C012107203D
S1130AB0FFF71CFE19480088694608806A4602212F
S1130AC00720FFF713FE164C002280212000FFF7B9
S1130AD0B3FF032214212000FFF7A2FF0123022207
S1130AE00421200000F09EF90123032204212000A8
S1130AF000F098F9012302220321200000F092F96A
S1130B0008480168084A0A4002601FBDC20000008C
S1130B104E0D0000FE0D0000A20E0000CA0F0000E2
S1130B200090044004800440FFFFF7FF704700007A
S1130B3000B5010049B2002905D40121C206D20E34
S1130B409140334A116000BD010C324A89180A6889
S1130B500123834013430B60704738B5040000251C
S1130B6020007F21C94340B2884202D10120050000
S1130B7003E0200040B2FFF7DBFF280032BD38B5A8
S1130B8005000024022C06D22348A1004058A842A4
S1130B9001D0641CF6E7022C06D335221F492048F5
S1130BA000F02EF900BF00BF200032BDF8B50400EC
S1130BB00F00002F06D1442218491A4800F020F9EA
S1130BC000BF00BF2000FFF7DAFF05002000FFF799
S1130BD0D6FF154980000858FFF7B6FF00202070A3
S1130BE07868A0703868607004263000207020781F
S1130BF00090387A0100C907C90F00980843022100
S1130C000143217009484057FFF7A7FFF1BD0000D9
S1130C1000E100E00080044048130000BC11000023
S1130C20D41000001413000040130000C0000000A2
S1130C30EFF3108072B6704780F310887047F2B5F6
S1130C400400FFF7F5FF0500114812490A688242C3
S1130C500DD000221600104A9208964206D20F4A7E
S1130C60B300D258B300C250761CF4E708602100E8
S1130C7049B2890041180F6C0099220052B29200C7
S1130C80801801642800FFF7D7FF3800F2BD000088
S1130C9000FCFF1F08ED00E0BD00000000000000A4
S1130CA00022030A8B420BD203098B4219D2430858
S1130CB08B422ED2411A00D201465241104670474F
S1130CC0FF2209023FD012068B4205D312120902F9
S1130CD08B4201D31212090203098B4219D300E09B
S1130CE0090AC3098B4201D3CB01C01A52418309BB
S1130CF08B4201D38B01C01A524143098B4201D369
S1130D004B01C01A524103098B4201D30B01C01A93
S1130D105241C3088B4201D3CB00C01A524183080D
S1130D208B4201D38B00C01A524143088B4201D33A
S1130D304B00C01A5241884200D3401A5241CFD2CC
S1130D4001461046704708B500F03EF908BD0000A2
S1130D5030B4434351435D18010C0C00130C5C4345
S1130D602D1980B2434392B251430024C9186441FF
S1130D7024040B04090C09195043C018694130BC00
S1130D80704712422DD0994231D970B500251B42CB
S1130D9009D00C00002112E01100FFF781FF0A00C6
S1130DA00021002370BD0942F6D000240126491811
S1130DB06441944200D3A41A7641F8D33100012649
S1130DC001E0764109D2001864416D41A41A9D41A5
S1130DD0F7D2A4185D41B619F5D3300022002B00D8
S1130DE070BD1B42CFD108B500F0F0F808BD01D1A9
S1130DF09042CAD202000B0000210020704701017A
S1130E0000B583B00091019202906A46044918200B
S1130E10ABBE002801D100F0DAF803B000BD00BF7A
S1130E2010100200F0B51C00E4B2002C1CD00C0021
S1130E30E4B2042C0BDA446801250E00F6B2F60085
S1130E401700FFB2F619B5402543456028E08468D1
S1130E5001250E00F6B2361FF6001700FFB2F61990
S1130E60B540254385601BE00C00E4B2042C0BDA8A
S1130E70446801250E00F6B2F6001700FFB2F61919
S1130E80B540AC4344600BE0846801250E00F6B223
S1130E90361FF6001700FFB2F619B540AC43846064
S1130EA0F0BD010138B50500204CA54209D3204806
S1130EB0854206D2AD221C491E48FFF7A1FF00BFA0
S1130EC000BF00200100A54200D30120C0B232BD02
S1130ED010B40168314A116031490A6803791B046E
S1130EE0E024E4021C4014430C6010BC704738B585
S1130EF004002068FFF7D6FF0F490A7849231340FE
S1130F00820004252A401A432379134362791A4341
S1130F100A702279002A05D00A78120602D50A78C6
S1130F20D207FCD531BD00004C1100009898000098
S1130F3000093D00241200000050064070B5020074
S1130F4003201E4B1C7805002540CC003826264083
S1130F502E431E70134B1C78E406E40E5501254302
S1130F601D70184B1C78E40602D51C78E407FCD5E8
S1130F70134B1C782500ED06ED0F002DF8D11C78DD
S1130F80A4080440002CFAD118784006FCD518783F
S1130F90802404431C70002070BD000018800440AD
S1130FA0048004400140064038B505000C002100CF
S1130FB0C9B22800C0B2FFF7C1FF32BD00400640ED
S1130FC0044006400050064070470101704780B558
S1130FD0012000F001F801BD80B500BF00BF024A46
S1130FE011001820ABBEFBE72600020000B501008B
S1130FF049B2002905D40121C206D20E91402B4AE0
S1131000116000BDF0B5020052B2002A17D41822B4
S1131010274B040064B2A408A4001C59FF25C60091
S11310201640B540AC438D01EDB2C6003240954048
S11310302543020052B2920892009D501BE00F22F9
S11310401C4B182405006DB21540083DAD08AE00D8
S113105005006DB22A40083A920892009A58FF257A
S1131060C7002740BD40AA438D01EDB2C7003C40F4
S1131070A54015439D51F0BD10B50F4C0F481049C4
S113108001801049018010480480E0200F49087055
S113109001200F4908701C20FFF7A8FF00211C2025
S11310A0FFF7B0FF00BF00BF10BD000000E100E08B
S11310B000E400E01CED00E003E80000022005402D
S11310C0C5200000D9280000042005400020054068
S11310D001200540696E7374616E6365203C2028AD
S11310E073697A656F6628735F6B626942617365C1
S11310F07329202F2073697A656F662828735F6BC4
S113110062694261736573295B305D2929000000BF
S113111070B40123002413E00168001D194202D0B9
S11311204D466918491E0C60091D121F042AFAD283
S11311300D00960701D50C80AD1C1A4000D02C7010
S11311400268001D002AE7D170BC7047433A5C4432
S11311506174615C536F75726365735C332D56699A
S1131160652D4C61766174726963652E6769745C80
S1131170647269766572735C66736C5F636C6F63CB
S11311806B2E6300433A5C446174615C536F757207
S11311906365735C332D5669652D4C617661747299
S11311A06963652E6769745C647269766572735CE1
S11311B066736C5F6770696F2E630000433A5C442A
S11311C06174615C536F75726365735C332D56692A
S11311D0652D4C61766174726963652E6769745C10
S11311E0647269766572735C66736C5F6B62692E98
S11311F06300000030B401220EE00368C3184468A1
S11312000830144202D04D462C19641E1D68256016
S11312101B1D241D091FF9D10168001D0029ECD1F3
S113122030BC70472866726571203C3D20333930EC
S113123036335529207C7C202866726571203E3D1A
S113124020343030303030305529000072B6054833
S1131250054901600A6882F308880448804762B639
S11312600348004708ED00E000000000791000008A
S1131270F912000010B5074979441831064C7C4432
S1131280163404E0081D0A68891888470100A14241
S1131290F8D110BD080000002800000075FEFFFF13
S11312A02800000004FDFF1F0000000049FFFFFFAD
S11312B004000000E000000000FDFF1F000000002B
S11312C000F00DF8002801D0FFF7D4FF00BF00BFE5
S11312D0002000BF00BFFFF779F900F002F80120F9
S11312E0704780B500F002F801BDFEE707463846B6
S11312F0FFF772FEFBE7FEE70548014603B46846C4
S113130080F3098800BF00BF00BF00BFFFF7D8FF0C
S1131310A5EDF5FE636F6E66696775726500000082
S1131320010000000000000080969800108000007A
S1131330636F6E666967000000F00F4040F00F4075
S113134018000C0019000C000090074000A0074092
S11313500048004789130000004800478913000033
S11313600048004789130000004800478913000023
S11313700048004789130000004800478913000013
S11313800048004789130000004800478913000003
S10F1390030203000048E801FEE7FEE74A
S903124D9D
